{
  "contractName": "DocumentRegistry",
  "abi": [
    {
      "anonymous": false,
      "inputs": [
        {
          "indexed": true,
          "internalType": "address",
          "name": "_signer",
          "type": "address"
        },
        {
          "indexed": false,
          "internalType": "string",
          "name": "_documentHash",
          "type": "string"
        }
      ],
      "name": "Notarized",
      "type": "event"
    },
    {
      "constant": false,
      "inputs": [
        {
          "internalType": "string",
          "name": "_documentHash",
          "type": "string"
        }
      ],
      "name": "notarizeDocument",
      "outputs": [
        {
          "internalType": "bool",
          "name": "",
          "type": "bool"
        }
      ],
      "payable": false,
      "stateMutability": "nonpayable",
      "type": "function"
    },
    {
      "constant": true,
      "inputs": [
        {
          "internalType": "string",
          "name": "_documentHash",
          "type": "string"
        }
      ],
      "name": "isNotarized",
      "outputs": [
        {
          "internalType": "bool",
          "name": "",
          "type": "bool"
        }
      ],
      "payable": false,
      "stateMutability": "view",
      "type": "function"
    }
  ],
  "bytecode": "0x608060405234801561001057600080fd5b50610422806100206000396000f3fe608060405234801561001057600080fd5b50600436106100365760003560e01c80636a33bf871461003b57806373ca4a5b146100cc575b600080fd5b6100b26004803603602081101561005157600080fd5b810190808035906020019064010000000081111561006e57600080fd5b82018360208201111561008057600080fd5b803590602001918460018302840111640100000000831117156100a257600080fd5b909192939192939050505061015d565b604051808215151515815260200191505060405180910390f35b610143600480360360208110156100e257600080fd5b81019080803590602001906401000000008111156100ff57600080fd5b82018360208201111561011157600080fd5b8035906020019184600183028401116401000000008311171561013357600080fd5b90919293919293905050506102aa565b604051808215151515815260200191505060405180910390f35b60008083836040516020018083838082843780830192505050925050506040516020818303038152906040528051906020012090503360008083815260200190815260200160002060000160006101000a81548173ffffffffffffffffffffffffffffffffffffffff021916908373ffffffffffffffffffffffffffffffffffffffff160217905550426000808381526020019081526020016000206001018190555083836000808481526020019081526020016000206002019190610224929190610348565b503373ffffffffffffffffffffffffffffffffffffffff167f4208034e4449bb439a4b1ba16ff193bec2c83ec39cd969a629aa475c7f0b8047858560405180806020018281038252848482818152602001925080828437600081840152601f19601f820116905080830192505050935050505060405180910390a2600191505092915050565b60008073ffffffffffffffffffffffffffffffffffffffff16600080858560405160200180838380828437808301925050509250505060405160208183030381529060405280519060200120815260200190815260200160002060000160009054906101000a900473ffffffffffffffffffffffffffffffffffffffff1673ffffffffffffffffffffffffffffffffffffffff161415905092915050565b828054600181600116156101000203166002900490600052602060002090601f016020900481019282601f1061038957803560ff19168380011785556103b7565b828001600101855582156103b7579182015b828111156103b657823582559160200191906001019061039b565b5b5090506103c491906103c8565b5090565b6103ea91905b808211156103e65760008160009055506001016103ce565b5090565b9056fea265627a7a723158205086efe9ffbcb614f804736c60cb5a55097755b3e1e925efba363ef2bf505e3064736f6c63430005100032",
  "source": "pragma solidity ^0.5.6;\r\n\r\ncontract DocumentRegistry {\r\n\r\n    struct Document{\r\n        address signer;\r\n        uint date;\r\n        string hash;\r\n    }\r\n\r\n    mapping(bytes32 => Document) registry;\r\n    event Notarized(address indexed _signer, string _documentHash);\r\n\r\n    function notarizeDocument(string  calldata  _documentHash) external returns (bool){\r\n        bytes32 id = keccak256(abi.encodePacked(_documentHash));\r\n\r\n        registry[id].signer = msg.sender;\r\n        registry[id].date = now;\r\n        registry[id].hash = _documentHash;\r\n\r\n        emit Notarized(msg.sender, _documentHash);\r\n        return true;\r\n    }\r\n     function isNotarized(string calldata _documentHash) external view returns (bool) {\r\n         return registry[keccak256(abi.encodePacked(_documentHash))].signer != address(0);\r\n     }\r\n}\r\n",
  "sourcePath": "D:\\hauphvn-Projects\\blockchain-thesis\\KHRealMavenWeb\\TruffleContract\\contracts\\DocumentRegistry.sol",
  "compiler": {
    "name": "solc",
    "version": "0.5.16+commit.9c3226ce.Emscripten.clang"
  },
  "schemaVersion": "3.1.0",
  "updatedAt": "2020-06-18T17:16:16.624Z",
  "devdoc": {
    "methods": {}
  },
  "userdoc": {
    "methods": {}
  }
}