{
  "contractName": "ManageRealEsate",
  "abi": [
    {
      "inputs": [],
      "payable": false,
      "stateMutability": "nonpayable",
      "type": "constructor"
    },
    {
      "anonymous": false,
      "inputs": [
        {
          "indexed": false,
          "internalType": "address",
          "name": "_owner",
          "type": "address"
        },
        {
          "indexed": false,
          "internalType": "uint256",
          "name": "_landID",
          "type": "uint256"
        }
      ],
      "name": "Add",
      "type": "event"
    },
    {
      "anonymous": false,
      "inputs": [
        {
          "indexed": true,
          "internalType": "address",
          "name": "_from",
          "type": "address"
        },
        {
          "indexed": true,
          "internalType": "address",
          "name": "_to",
          "type": "address"
        },
        {
          "indexed": false,
          "internalType": "uint256",
          "name": "_landId",
          "type": "uint256"
        }
      ],
      "name": "Transfer",
      "type": "event"
    },
    {
      "constant": true,
      "inputs": [
        {
          "internalType": "address",
          "name": "",
          "type": "address"
        },
        {
          "internalType": "uint256",
          "name": "",
          "type": "uint256"
        }
      ],
      "name": "__ownedLands",
      "outputs": [
        {
          "internalType": "address",
          "name": "ownerAddress",
          "type": "address"
        },
        {
          "internalType": "string",
          "name": "district",
          "type": "string"
        },
        {
          "internalType": "string",
          "name": "street",
          "type": "string"
        },
        {
          "internalType": "uint256",
          "name": "cost",
          "type": "uint256"
        },
        {
          "internalType": "uint256",
          "name": "landID",
          "type": "uint256"
        }
      ],
      "payable": false,
      "stateMutability": "view",
      "type": "function"
    },
    {
      "constant": true,
      "inputs": [],
      "name": "owner",
      "outputs": [
        {
          "internalType": "address",
          "name": "",
          "type": "address"
        }
      ],
      "payable": false,
      "stateMutability": "view",
      "type": "function"
    },
    {
      "constant": true,
      "inputs": [],
      "name": "totalLandsCounter",
      "outputs": [
        {
          "internalType": "uint256",
          "name": "",
          "type": "uint256"
        }
      ],
      "payable": false,
      "stateMutability": "view",
      "type": "function"
    },
    {
      "constant": false,
      "inputs": [
        {
          "internalType": "string",
          "name": "_district",
          "type": "string"
        },
        {
          "internalType": "string",
          "name": "_street",
          "type": "string"
        },
        {
          "internalType": "uint256",
          "name": "_cost",
          "type": "uint256"
        }
      ],
      "name": "addLand",
      "outputs": [],
      "payable": false,
      "stateMutability": "nonpayable",
      "type": "function"
    },
    {
      "constant": false,
      "inputs": [
        {
          "internalType": "address",
          "name": "_landBuyer",
          "type": "address"
        },
        {
          "internalType": "uint256",
          "name": "_landID",
          "type": "uint256"
        }
      ],
      "name": "transferLand",
      "outputs": [
        {
          "internalType": "bool",
          "name": "",
          "type": "bool"
        }
      ],
      "payable": false,
      "stateMutability": "nonpayable",
      "type": "function"
    },
    {
      "constant": true,
      "inputs": [
        {
          "internalType": "address",
          "name": "_landHolder",
          "type": "address"
        },
        {
          "internalType": "uint256",
          "name": "_index",
          "type": "uint256"
        }
      ],
      "name": "getLand",
      "outputs": [
        {
          "internalType": "address",
          "name": "",
          "type": "address"
        },
        {
          "internalType": "string",
          "name": "",
          "type": "string"
        },
        {
          "internalType": "string",
          "name": "",
          "type": "string"
        },
        {
          "internalType": "uint256",
          "name": "",
          "type": "uint256"
        },
        {
          "internalType": "uint256",
          "name": "",
          "type": "uint256"
        }
      ],
      "payable": false,
      "stateMutability": "view",
      "type": "function"
    },
    {
      "constant": true,
      "inputs": [
        {
          "internalType": "address",
          "name": "_landHolder",
          "type": "address"
        }
      ],
      "name": "getNoOfLand",
      "outputs": [
        {
          "internalType": "uint256",
          "name": "",
          "type": "uint256"
        }
      ],
      "payable": false,
      "stateMutability": "view",
      "type": "function"
    }
  ],
  "bytecode": "0x608060405234801561001057600080fd5b50336000806101000a81548173ffffffffffffffffffffffffffffffffffffffff021916908373ffffffffffffffffffffffffffffffffffffffff1602179055506000600181905550611592806100686000396000f3fe608060405234801561001057600080fd5b506004361061007d5760003560e01c8063657425551161005b57806365742555146103aa57806382f557ae1461051e5780638da5cb5b1461053c578063b3f40d6a146105865761007d565b806305efe9c7146100825780630c73f23d146101f65780635b207bdf14610352575b600080fd5b6100ce6004803603604081101561009857600080fd5b81019080803573ffffffffffffffffffffffffffffffffffffffff169060200190929190803590602001909291905050506105ec565b604051808673ffffffffffffffffffffffffffffffffffffffff1673ffffffffffffffffffffffffffffffffffffffff1681526020018060200180602001858152602001848152602001838103835287818151815260200191508051906020019080838360005b83811015610150578082015181840152602081019050610135565b50505050905090810190601f16801561017d5780820380516001836020036101000a031916815260200191505b50838103825286818151815260200191508051906020019080838360005b838110156101b657808201518184015260208101905061019b565b50505050905090810190601f1680156101e35780820380516001836020036101000a031916815260200191505b5097505050505050505060405180910390f35b6103506004803603606081101561020c57600080fd5b810190808035906020019064010000000081111561022957600080fd5b82018360208201111561023b57600080fd5b8035906020019184600183028401116401000000008311171561025d57600080fd5b91908080601f016020809104026020016040519081016040528093929190818152602001838380828437600081840152601f19601f820116905080830192505050505050509192919290803590602001906401000000008111156102c057600080fd5b8201836020820111156102d257600080fd5b803590602001918460018302840111640100000000831117156102f457600080fd5b91908080601f016020809104026020016040519081016040528093929190818152602001838380828437600081840152601f19601f8201169050808301925050505050505091929192908035906020019092919050505061078c565b005b6103946004803603602081101561036857600080fd5b81019080803573ffffffffffffffffffffffffffffffffffffffff1690602001909291905050506109af565b6040518082815260200191505060405180910390f35b6103f6600480360360408110156103c057600080fd5b81019080803573ffffffffffffffffffffffffffffffffffffffff16906020019092919080359060200190929190505050610ad9565b604051808673ffffffffffffffffffffffffffffffffffffffff1673ffffffffffffffffffffffffffffffffffffffff1681526020018060200180602001858152602001848152602001838103835287818151815260200191508051906020019080838360005b8381101561047857808201518184015260208101905061045d565b50505050905090810190601f1680156104a55780820380516001836020036101000a031916815260200191505b50838103825286818151815260200191508051906020019080838360005b838110156104de5780820151818401526020810190506104c3565b50505050905090810190601f16801561050b5780820380516001836020036101000a031916815260200191505b5097505050505050505060405180910390f35b610526610e17565b6040518082815260200191505060405180910390f35b610544610e1d565b604051808273ffffffffffffffffffffffffffffffffffffffff1673ffffffffffffffffffffffffffffffffffffffff16815260200191505060405180910390f35b6105d26004803603604081101561059c57600080fd5b81019080803573ffffffffffffffffffffffffffffffffffffffff16906020019092919080359060200190929190505050610e42565b604051808215151515815260200191505060405180910390f35b6002602052816000526040600020818154811061060557fe5b9060005260206000209060050201600091509150508060000160009054906101000a900473ffffffffffffffffffffffffffffffffffffffff1690806001018054600181600116156101000203166002900480601f0160208091040260200160405190810160405280929190818152602001828054600181600116156101000203166002900480156106d85780601f106106ad576101008083540402835291602001916106d8565b820191906000526020600020905b8154815290600101906020018083116106bb57829003601f168201915b505050505090806002018054600181600116156101000203166002900480601f0160208091040260200160405190810160405280929190818152602001828054600181600116156101000203166002900480156107765780601f1061074b57610100808354040283529160200191610776565b820191906000526020600020905b81548152906001019060200180831161075957829003601f168201915b5050505050908060030154908060040154905085565b6000809054906101000a900473ffffffffffffffffffffffffffffffffffffffff1673ffffffffffffffffffffffffffffffffffffffff163373ffffffffffffffffffffffffffffffffffffffff16146107e557600080fd5b60018054016001819055506107f861142b565b6040518060a001604052803373ffffffffffffffffffffffffffffffffffffffff1681526020018581526020018481526020018381526020016001548152509050600260003373ffffffffffffffffffffffffffffffffffffffff1673ffffffffffffffffffffffffffffffffffffffff168152602001908152602001600020819080600181540180825580915050906001820390600052602060002090600502016000909192909190915060008201518160000160006101000a81548173ffffffffffffffffffffffffffffffffffffffff021916908373ffffffffffffffffffffffffffffffffffffffff1602179055506020820151816001019080519060200190610907929190611470565b506040820151816002019080519060200190610924929190611470565b5060608201518160030155608082015181600401555050507f2728c9d3205d667bbc0eefdfeda366261b4d021949630c047f3e5834b30611ab33600154604051808373ffffffffffffffffffffffffffffffffffffffff1673ffffffffffffffffffffffffffffffffffffffff1681526020018281526020019250505060405180910390a150505050565b600080600090506000600260008573ffffffffffffffffffffffffffffffffffffffff1673ffffffffffffffffffffffffffffffffffffffff16815260200190815260200160002080549050905060008090505b81811015610ace57600073ffffffffffffffffffffffffffffffffffffffff16600260008773ffffffffffffffffffffffffffffffffffffffff1673ffffffffffffffffffffffffffffffffffffffff1681526020019081526020016000208281548110610a6d57fe5b906000526020600020906005020160000160009054906101000a900473ffffffffffffffffffffffffffffffffffffffff1673ffffffffffffffffffffffffffffffffffffffff1614610ac1578260010192505b8080600101915050610a03565b508192505050919050565b6000606080600080600260008873ffffffffffffffffffffffffffffffffffffffff1673ffffffffffffffffffffffffffffffffffffffff1681526020019081526020016000208681548110610b2b57fe5b906000526020600020906005020160000160009054906101000a900473ffffffffffffffffffffffffffffffffffffffff16600260008973ffffffffffffffffffffffffffffffffffffffff1673ffffffffffffffffffffffffffffffffffffffff1681526020019081526020016000208781548110610ba757fe5b9060005260206000209060050201600101600260008a73ffffffffffffffffffffffffffffffffffffffff1673ffffffffffffffffffffffffffffffffffffffff1681526020019081526020016000208881548110610c0257fe5b9060005260206000209060050201600201600260008b73ffffffffffffffffffffffffffffffffffffffff1673ffffffffffffffffffffffffffffffffffffffff1681526020019081526020016000208981548110610c5d57fe5b906000526020600020906005020160030154600260008c73ffffffffffffffffffffffffffffffffffffffff1673ffffffffffffffffffffffffffffffffffffffff1681526020019081526020016000208a81548110610cb957fe5b906000526020600020906005020160040154838054600181600116156101000203166002900480601f016020809104026020016040519081016040528092919081815260200182805460018160011615610100020316600290048015610d605780601f10610d3557610100808354040283529160200191610d60565b820191906000526020600020905b815481529060010190602001808311610d4357829003601f168201915b50505050509350828054600181600116156101000203166002900480601f016020809104026020016040519081016040528092919081815260200182805460018160011615610100020316600290048015610dfc5780601f10610dd157610100808354040283529160200191610dfc565b820191906000526020600020905b815481529060010190602001808311610ddf57829003601f168201915b50505050509250945094509450945094509295509295909350565b60015481565b6000809054906101000a900473ffffffffffffffffffffffffffffffffffffffff1681565b600080600090505b600260003373ffffffffffffffffffffffffffffffffffffffff1673ffffffffffffffffffffffffffffffffffffffff1681526020019081526020016000208054905081101561141f5782600260003373ffffffffffffffffffffffffffffffffffffffff1673ffffffffffffffffffffffffffffffffffffffff1681526020019081526020016000208281548110610edf57fe5b906000526020600020906005020160040154141561141257610eff61142b565b6040518060a001604052808673ffffffffffffffffffffffffffffffffffffffff168152602001600260003373ffffffffffffffffffffffffffffffffffffffff1673ffffffffffffffffffffffffffffffffffffffff1681526020019081526020016000208481548110610f7057fe5b90600052602060002090600502016001018054600181600116156101000203166002900480601f0160208091040260200160405190810160405280929190818152602001828054600181600116156101000203166002900480156110155780601f10610fea57610100808354040283529160200191611015565b820191906000526020600020905b815481529060010190602001808311610ff857829003601f168201915b50505050508152602001600260003373ffffffffffffffffffffffffffffffffffffffff1673ffffffffffffffffffffffffffffffffffffffff168152602001908152602001600020848154811061106957fe5b90600052602060002090600502016002018054600181600116156101000203166002900480601f01602080910402602001604051908101604052809291908181526020018280546001816001161561010002031660029004801561110e5780601f106110e35761010080835404028352916020019161110e565b820191906000526020600020905b8154815290600101906020018083116110f157829003601f168201915b50505050508152602001600260003373ffffffffffffffffffffffffffffffffffffffff1673ffffffffffffffffffffffffffffffffffffffff168152602001908152602001600020848154811061116257fe5b9060005260206000209060050201600301548152602001600260003373ffffffffffffffffffffffffffffffffffffffff1673ffffffffffffffffffffffffffffffffffffffff16815260200190815260200160002084815481106111c357fe5b9060005260206000209060050201600401548152509050600260008673ffffffffffffffffffffffffffffffffffffffff1673ffffffffffffffffffffffffffffffffffffffff168152602001908152602001600020819080600181540180825580915050906001820390600052602060002090600502016000909192909190915060008201518160000160006101000a81548173ffffffffffffffffffffffffffffffffffffffff021916908373ffffffffffffffffffffffffffffffffffffffff16021790555060208201518160010190805190602001906112a8929190611470565b5060408201518160020190805190602001906112c5929190611470565b506060820151816003015560808201518160040155505050600260003373ffffffffffffffffffffffffffffffffffffffff1673ffffffffffffffffffffffffffffffffffffffff168152602001908152602001600020828154811061132757fe5b9060005260206000209060050201600080820160006101000a81549073ffffffffffffffffffffffffffffffffffffffff021916905560018201600061136d91906114f0565b60028201600061137d91906114f0565b600382016000905560048201600090555050600160008154809291906001900391905055508473ffffffffffffffffffffffffffffffffffffffff163373ffffffffffffffffffffffffffffffffffffffff167fddf252ad1be2c89b69c2b068fc378daa952ba7f163c4a11628f55a4df523b3ef866040518082815260200191505060405180910390a3600192505050611425565b8080600101915050610e4a565b50600090505b92915050565b6040518060a00160405280600073ffffffffffffffffffffffffffffffffffffffff168152602001606081526020016060815260200160008152602001600081525090565b828054600181600116156101000203166002900490600052602060002090601f016020900481019282601f106114b157805160ff19168380011785556114df565b828001600101855582156114df579182015b828111156114de5782518255916020019190600101906114c3565b5b5090506114ec9190611538565b5090565b50805460018160011615610100020316600290046000825580601f106115165750611535565b601f0160209004906000526020600020908101906115349190611538565b5b50565b61155a91905b8082111561155657600081600090555060010161153e565b5090565b9056fea265627a7a723158205b89cdfa2bc997a49f84ea7052ee0e3f38a878318ad678e78aef82a4f2766aef64736f6c63430005100032",
  "source": "pragma solidity ^0.5.0;\r\n\r\ncontract ManageRealEsate {\r\n    struct Land\r\n    {\r\n        address ownerAddress;\r\n        string district;\r\n        string street;\r\n        uint cost;\r\n        uint landID;\r\n    }\r\n\r\n    address public owner;   // government who creates the contract\r\n    uint public totalLandsCounter; //total no of lands via this contract at any time\r\n    //    string public forTest;\r\n    constructor() public {\r\n        owner = msg.sender;\r\n        totalLandsCounter = 0;\r\n        //        forTest = \"Thanh cong\";\r\n    }\r\n    event Add(address _owner, uint _landID);\r\n    event Transfer(address indexed _from, address indexed _to, uint _landId);\r\n    modifier isOwner\r\n    {\r\n        require(msg.sender == owner);\r\n        _;\r\n    }\r\n    mapping(address => Land[]) public __ownedLands;\r\n    //1. FIRST OPERATION\r\n    //Nhân viên sở tài nguyên sẽ thêm bds bằng hàm này\r\n    function addLand(string memory _district, string memory _street, uint _cost) public isOwner\r\n    {\r\n        totalLandsCounter = totalLandsCounter + 1;\r\n        Land memory myLand = Land(\r\n            {\r\n            ownerAddress : msg.sender,\r\n            district : _district,\r\n            street : _street,\r\n            cost : _cost,\r\n            landID : totalLandsCounter\r\n            });\r\n        __ownedLands[msg.sender].push(myLand);\r\n        emit Add(msg.sender, totalLandsCounter);\r\n    }\r\n    //2. SECOND OPERATION\r\n    //caller (owner/anyone) to transfer land to buyer provided caller is owner of the land\r\n    function transferLand(address _landBuyer, uint _landID) public returns (bool)\r\n    {\r\n        //find out the particular land ID in owner's collection\r\n        for(uint i=0; i < (__ownedLands[msg.sender].length);i++)\r\n        {\r\n            //if given land ID is indeed in owner's collection\r\n            if (__ownedLands[msg.sender][i].landID == _landID)\r\n            {\r\n                //copy land in new owner's collection\r\n                Land memory myLand = Land(\r\n                    {\r\n                    ownerAddress : _landBuyer,\r\n                    district : __ownedLands[msg.sender][i].district,\r\n                    street : __ownedLands[msg.sender][i].street,\r\n                    cost : __ownedLands[msg.sender][i].cost,\r\n                    landID : __ownedLands[msg.sender][i].landID\r\n                    });\r\n                __ownedLands[_landBuyer].push(myLand);\r\n\r\n                //remove land from current ownerAddress\r\n                delete __ownedLands[msg.sender][i];\r\n                totalLandsCounter--;\r\n\r\n                //inform the world\r\n                emit Transfer(msg.sender, _landBuyer, _landID);\r\n\r\n                return true;\r\n            }\r\n        }\r\n\r\n        //if we still did not return, return false\r\n        return false;\r\n    }\r\n    //3. GET A LAND OF AN ACCOUNT\r\n    function getLand(address _landHolder, uint _index) public view returns (address, string memory, string memory, uint, uint){\r\n        return (__ownedLands[_landHolder][_index].ownerAddress,\r\n        __ownedLands[_landHolder][_index].district,\r\n        __ownedLands[_landHolder][_index].street,\r\n        __ownedLands[_landHolder][_index].cost,\r\n        __ownedLands[_landHolder][_index].landID);\r\n    }\r\n\r\n    //4. GET TOTAL NO OF LANDS\r\n    function getNoOfLand(address _landHolder) external view returns(uint){\r\n        uint size = 0;\r\n        uint lengthOfArr= __ownedLands[_landHolder].length;\r\n        for(uint i =0;i<lengthOfArr;i++){\r\n            if(__ownedLands[_landHolder][i].ownerAddress != address(0)){\r\n                ++size;\r\n            }\r\n        }\r\n        return size;\r\n    }\r\n}",
  "sourcePath": "D:\\hauphvn-Projects\\blockchain-thesis\\KHRealMavenWeb\\TruffleContract\\contracts\\ManageRealEstate.sol",
  "compiler": {
    "name": "solc",
    "version": "0.5.16+commit.9c3226ce.Emscripten.clang"
  },
  "schemaVersion": "3.1.0",
  "updatedAt": "2020-06-18T17:16:16.651Z",
  "devdoc": {
    "methods": {}
  },
  "userdoc": {
    "methods": {}
  }
}